:020000040800F2
:10000000081C0020A10A0008350300083703000877
:100010003B0300083F030008430300080000000002
:10002000000000000000000000000000470300087E
:1000300049030008000000004B0300084D030008BE
:10004000BB0A0008BB0A0008BB0A0008BB0A00087C
:10005000BB0A0008BB0A0008BB0A0008BB0A00086C
:10006000BB0A0008BB0A0008BB0A0008BB0A00085C
:10007000BB0A0008BB0A0008BB0A0008BB0A00084C
:10008000BB0A0008BB0A0008BB0A0008BB0A00083C
:10009000BB0A0008BB0A0008BB0A0008BB0A00082C
:1000A000BB0A0008BB0A0008BB0A0008BB0A00081C
:1000B000BB0A0008BB0A0008BB0A0008BB0A00080C
:1000C000BB0A0008BB0A0008BB0A0008BB0A0008FC
:1000D000BB0A0008170A0008BB0A0008BB0A000890
:1000E000BB0A0008BB0A0008BB0A0008BB0A0008DC
:1000F000BB0A0008BB0A0008BB0A0008BB0A0008CC
:10010000BB0A0008BB0A0008BB0A0008BB0A0008BB
:10011000BB0A0008BB0A0008BB0A0008BB0A0008AB
:10012000BB0A0008BB0A0008BB0A0008BB0A00089B
:10013000BB0A0008BB0A0008BB0A0008BB0A00088B
:10014000BB0A0008BB0A0008BB0A0008BB0A00087B
:10015000BB0A0008BB0A0008BB0A0008BB0A00086B
:10016000BB0A0008BB0A0008BB0A0008BB0A00085B
:10017000BB0A0008BB0A0008BB0A0008BB0A00084B
:10018000BB0A0008BB0A000800F002F800F060F8A3
:100190000AA090E8000C82448344AAF10107DA45E2
:1001A00001D100F055F8AFF2090EBAE80F0013F0D4
:1001B000010F18BFFB1A43F0010318476423000026
:1001C0008423000010F8013B0A4413F0030408BF25
:1001D00010F8014B1D1108BF10F8015B641E05D01B
:1001E00010F8016B641E01F8016BF9D1002D15D0D8
:1001F00010F8014B03F00C030C2BA1EB04040ABF15
:1002000010F8013BA4EB8314A4EB032405F10103D4
:1002100014F8016B5B1E01F8016BF9D5914238BFF0
:1002200010F8013BD1D3704700230024002500269D
:10023000103A28BF78C1FBD8520728BF30C148BF49
:100240000B6070471FB502F065F91FBD10B510BDFA
:1002500001F097FE1146FFF7F5FF00F009F801F0F5
:10026000B5FE03B4FFF7F2FF03BC00F075FB00001E
:100270002DED028B4FF4A06000F032FCA82000F0BE
:10028000E9FA4FF4E13000F074FB00F069F900F096
:1002900009FA00F085F900F073FA0021084600F031
:1002A00037FF3FE09FED200AB0EE408A002417E0C0
:1002B0001E4850F8240000EE100AF8EEC00A40F282
:1002C0009520001B401E1A4901EB800090ED001A9A
:1002D000B0EE480A00EE810AB0EE408A601C84B29B
:1002E000B4F5257FE4DD002507E01049681C51F8CE
:1002F000200041F82500681C85B2B5F5257FF4DBA8
:10030000012000F00BFA0949C1F8500ABDEEC80AF5
:1003100010EE100A81B2002000F0FAFEFA2000F080
:10032000B3FA00BFBEE7000000000000880A00200A
:1003300000000020704700BFFEE700BFFEE700BFDF
:10034000FEE700BFFEE77047704770477047000048
:100350000CB50020019000907648006840F4803091
:100360007449086000BF7348006800F400300090D2
:100370000198401C0190009818B90198B0F5A04F61
:10038000F1D16C48006800F4003010B101200090F9
:1003900001E0002000900098012846D165484030D7
:1003A000006840F08050634940310860624800684E
:1003B00040F44040604908605E48083000685D498C
:1003C000083108600846006840F4004008600846AC
:1003D000006840F4A05008605848091F0860081FD2
:1003E000006840F08070091F086000BF5148006835
:1003F00000F000700028F9D040F205705049086004
:100400004C480830006820F003004A490831086071
:100410000846006840F00200086000BF4548083008
:10042000006800F00C000828F8D10CBD10B5454854
:10043000006840F47000434908603E48006840F09E
:1004400001003C49086000203A49083108603948F9
:1004500000683D490840374908603C48091D08606C
:10046000081F006820F48020091F0860002031491F
:100470000C310860FFF76CFF4FF0006031498039A4
:10048000086010BD70B50020002202230024022164
:10049000284D08352D6805F00C0020B1042806D041
:1004A000082834D107E02A4D2A4E356033E02A4D22
:1004B000284E35602FE01F4D2D1D2D68C5F380544B
:1004C0001C4D2D1D2D6805F03F0154B1224DB5FB8B
:1004D000F1F5184E361D3668C6F3881605FB06F290
:1004E00009E01B4DB5FBF1F5124E361D3668C6F31B
:1004F000881605FB06F20F4D2D1D2D68C5F301452D
:100500006D1C6B00B2FBF3F5124E356003E0104D2D
:10051000104E356000BF00BF064D08352D68C5F38D
:1005200003150E4E705D0B4D2D68C540094E3560AC
:1005300070BD0000003802400070004008544007C1
:10054000003C024088ED00E0FFFFF6FE1030002482
:100550000024F400540A002000127A00580A0020F7
:100560001CB50121202001F089F94FF4C0600090F2
:1005700001208DF8040000208DF8060003208DF87E
:10058000050001208DF807006946044800F0D8FEF8
:100590004FF4C061014800F04FFF1CBD0014024041
:1005A0001CB50121112001F069F91C2000900020E8
:1005B0008DF8040003208DF8050001208DF8070058
:1005C0006946354800F0BCFE0120009002208DF8FD
:1005D00007006946314800F0B3FE1CBD10B5044663
:1005E00014B101202E4908702D480078002837D01A
:1005F0001021294800F006FF78B10821264800F0B4
:1006000001FF50B10421244800F0FCFE28B1012173
:10061000224800F0F7FE012822D10A2000F07CF9E0
:1006200000201F49087010211B4800F0EBFE08B99C
:10063000012010BD0821184800F0E4FE08B902208E
:10064000F7E70421144800F0DDFE08B90320F0E7C5
:100650000121124800F0D6FE01281BD10420E8E752
:1006600010210D4800F0CEFE012813D108210A48C0
:1006700000F0C8FE01280DD10421074800F0C2FE99
:10068000012807D10121054800F0BCFE10B9012066
:10069000034908700020CCE700100240000002402F
:1006A000680A002000B58DB00121084601F0E6F887
:1006B0000121080201F03CF920200B9003208DF865
:1006C000300002208DF833000BA92B4800F038FED3
:1006D0000121080201F081F900214FF4807001F03E
:1006E0007CF9002007900A900990089007A800F074
:1006F000A1FA002001908DF808008DF80900039000
:10070000059001208DF8180001A91C4800F063FA3B
:1007100001211A4800F0A5FA0DB000BD10B504463D
:10072000072301222146154800F0DBFA134800F0A8
:1007300034FB00BF0221114800F050FC0028F9D022
:100740000E4800F066FB10BD2DE9F04107460C464F
:100750000025002608E03846FFF7E0FF05440520A5
:1007600000F0DAF8701CC6B2A642F4DBB5FBF4F078
:1007700080B2BDE8F081000000000240002001408E
:1007800000B587B00121084601F078F8012148073B
:1007900001F0BDF81020059003208DF8180002200C
:1007A0008DF81B0005A9244800F0CAFD0020019027
:1007B000029003900220049001A9002000F03DFC6B
:1007C0000121002000F056FC0021084600F0A0FCAA
:1007D00007B000BD70B52DED048B0446204601F036
:1007E00088FD41EC180B9FED150B53EC102B51ECD1
:1007F000180B01F0F9FB41EC180B9FED120B53ECB9
:10080000102B51EC180B01F087FD41EC190B9FEDFB
:100810000F0B53EC102B01F0E7FB41EC180B51ECE4
:10082000180B01F039FD85B22946002000F070FC5C
:10083000BDEC048B70BD0000000002400000000011
:1008400000408F40000000000000B0406666666611
:1008500066660A4010B504466FF0040000F092F995
:10086000E11704EB5171C1F3C701394A1170104609
:10087000007800EB4001C1EBC0104FF6FF7101EAB8
:10088000C0003449088010BD0146314A12784A43FD
:100890004FF0E0235A6100229A611A46126942F031
:1008A00001021A6100BF4FF0E022106900F001025E
:1008B0001AB100F48032002AF5D04FF0E02212691C
:1008C00022F001024FF0E0231A6100229A61704782
:1008D0000146204A12884A434FF0E0235A61002221
:1008E0009A611A46126942F001021A6100BF4FF084
:1008F000E022106900F001021AB100F48032002AEF
:10090000F5D04FF0E022126922F001024FF0E0230F
:100910001A6100229A61704770B504464FF407705F
:1009200094FBF0F0C6B24FF4077094FBF0F100FBBB
:10093000114085B205E04FF40770FFF7C9FF701E44
:10094000C6B2002EF7D115B12846FFF7C1FF70BD22
:100950006A0A00206C0A002000BF704700BF4C4AA2
:10096000128802F04002002AF9D0C2B2484B9A80A5
:10097000704710B588B004460121084600F07EFF9C
:100980000121102000F0D4FF07220921414800F086
:1009900062FD07220A213F4800F05DFD4FF4C06070
:1009A000069002208DF81C008DF81D0000208DF8A7
:1009B0001E0001208DF81F0006A9364800F0C0FC7B
:1009C00002940020ADF80C00ADF80E00ADF8100058
:1009D000ADF814000C20ADF8120002A92C4801F06B
:1009E00008F901212A4801F08CF9012240F2255131
:1009F000274801F03CFA25208DF8040003208DF8EB
:100A000005008DF8060001208DF8070001A800F010
:100A10006CF808B010BD10B540F225511C4801F02B
:100A200061FA10B31A4801F09BF9C4B21A48008861
:100A300000F40040C8B91848008800F4804060B154
:100A40000A2C03D000201449088020E012480088B6
:100A500040F400401049088019E00D2C06D10E48E2
:100A6000008840F480400C49088010E00A48008863
:100A7000C0F30D0009490C5407480088401C064982
:100A8000088008460088C72801DD0020088010BDC6
:100A90000010014000000240740A0020DC14002015
:100AA0000948804709480047FEE7FEE7FEE7FEE702
:100AB000FEE7FEE7FEE7FEE7FEE7FEE7044805493E
:100AC000054A064B704700002D0400088901000804
:100AD00008160020081C0020081800200818002014
:100AE00032490143324A1160704770B5002100233A
:100AF0000F22C4781CB32E4C246804F4E064C4F5BF
:100B0000E064C4F30721C1F10404E3B20A4144786C
:100B10009C40E1B28478144021430C07210E254CFF
:100B200005786155047804F01F050124AC40057870
:100B30006D11AD0005F1E025C5F8004109E004782C
:100B400004F01F050124AC401B4D0678761145F8D2
:100B5000264070BD194A0A400243154B1B1F1A60FC
:100B6000704739B1124A121D12680243104B1B1D07
:100B70001A6006E00E4A121D126882430C4B1B1DC0
:100B80001A607047042808D14FF0E021096941F04C
:100B900004014FF0E022116107E04FF0E021096904
:100BA00021F004014FF0E022116170470000FA05C6
:100BB0000CED00E000E400E080E100E080FFFF1FBA
:100BC00010B50121080200F008FF00214FF48070E9
:100BD00000F003FF10BD30B502460020002350682E
:100BE000F84C20400D790C6844EA052420435060FD
:100BF0009068F54C2040D1E903542C438D682C4378
:100C00004D7944EA450420439060D06A20F4700096
:100C10000C7D641EE4B2234340EA0350D06230BD31
:100C200000210160017141718160C1600161012198
:100C3000017570470021E54A1168E54A1140D0E985
:100C400000231A4383681A43C3681A431143E14AD5
:100C5000C2F8041370470021016041608160C160E7
:100C6000704721B1826842F00102826003E082682D
:100C700022F00102826070470A4600214168D64B8B
:100C800019401143416070474162826270470A46D1
:100C90000021416821F01F0111434160704738B1C4
:100CA000CA49096841F40001CA4AC2F8041306E0BF
:100CB000C649096821F40001C64AC2F80413704706
:100CC00038B1C249096841F48001C24AC2F804132C
:100CD00006E0BE49096821F48001BE4AC2F8041347
:100CE0007047F0B504460D4600200021092D11DDA6
:100CF000E068A5F10A0606EB4607072606FA07F1A3
:100D00008843A5F10A0606EB460603FA06F10843F6
:100D1000E0600CE0206905EB4507072606FA07F1BD
:100D2000884305EB450603FA06F108432061072ACC
:100D30000FDA606B561E06EB86071F2606FA07F1D0
:100D40008843561E06EB860605FA06F108436063E3
:100D500022E00D2A0FDA206BD61F06EB86071F262E
:100D600006FA07F18843D61F06EB860605FA06F158
:100D70000843206310E0E06AA2F10D0606EB860747
:100D80001F2606FA07F18843A2F10D0606EB860638
:100D900005FA06F10843E062F0BD816841F0804148
:100DA00081607047014600208A6802F080420AB1E3
:100DB000012000E00020704721B1826842F4806287
:100DC000826003E0826822F480628260704721B111
:100DD000826842F00202826003E0826822F002022E
:100DE0008260704710B50A4600210023416821F453
:100DF0006041531E41EA4331416010BD21B1426858
:100E000042F40062426003E0426822F40062426001
:100E100070470146C86C80B270476C48001D00687E
:100E2000704721B1826842F48072826003E0826878
:100E300022F480728260704721B1826842F40072AD
:100E4000826003E0826822F400728260704738B1E9
:100E50005E49096841F400515E4AC2F8041306E095
:100E60005A49096821F400515A4AC2F804137047DC
:100E7000F0B504461546002000220026092911DDA0
:100E8000E068A1F10A0707EB470C072707FA0CF205
:100E90009043A1F10A0707EB470703FA07F2104353
:100EA000E0600CE0206901EB410C072707FA0CF227
:100EB000904301EB410703FA07F210432061A06B56
:100EC000C0F30156EF1C06F1010CA7EB0C0707EB72
:100ED000870C1F2707FA0CF29043EF1C06F1010C58
:100EE000A7EB0C0707EB870701FA07F21043A06393
:100EF000F0BD10B50A4600210023816B21F440119A
:100F0000531E41EA0351816310BD08B500230093CD
:100F10000090009B0B440093009B1A6008BD0A469A
:100F20000021816821F470211143816070470A46D5
:100F30000021816821F4401111438160704781686C
:100F400041F4800181607047014600208A6802F404
:100F500080020AB1012000E00020704721B1426800
:100F600042F48062426003E0426822F480624260A0
:100F7000704721B1426842F48052426003E0426807
:100F800022F480524260704708B50246002000906B
:100F9000009201F12800009B18440090009800681E
:100FA00080B208BD10B50B460021D9B2012404FA65
:100FB00001F11AB144680C43446002E044688C4378
:100FC000446010BDFFFEFFFCFDF7FFC0042301409D
:100FD000E030FCFF00200140FFFD3FFF0246002003
:100FE00013680B400BB1012000E000207047CA439A
:100FF0000260704770B502460020002300240B12E7
:10100000556801268E4005EA060415681D4015B195
:101010000CB1012000E0002070BD00220A12D34371
:101020000360704710B50121480700F0C5FC00219E
:101030004FF0005000F0C0FC10BD30B5002200237E
:101040007B4C226840F6FE748440A243D1E90045FF
:101050002C438D682C43CD6844EA050303FA00F461
:101060002243734C226030BD0021016041608160E9
:10107000C160704739B16E4A1268012383401A4338
:101080006B4B1A6006E06A4A1268012383409A4358
:10109000674B1A60704710B551B1654A121D12684E
:1010A00004090123A3401A43614B1B1D1A6009E088
:1010B0005F4A121D126804090123A3409A435C4B46
:1010C0001B1D1A6010BD40B15949091D096841F046
:1010D0000301574A121D116007E05549091D0968AF
:1010E00021F00301524A121D1160704710B53AB148
:1010F0004F4B1B6801FA00F423434D4C236006E07C
:101100004B4B1B6801FA00F4A343494C236010BD0C
:1011100008B500220092464A009200F10802009BA6
:101120001A440092009A116008BD08B5002200928E
:101130003F4A009200F11402009B1A440092009A68
:10114000116008BD30B500240023082802D142EA0E
:10115000012401E042EA0144354B00F120052B4413
:101160001C6030BD08B5014600200090304800905A
:101170002C2000EB9100009A104400900098006829
:1011800080B208BD41B12A4A12684FF480538340AF
:101190001A43274B1A6007E0254A12684FF4805320
:1011A00083409A43224B1A60704710B53AB1204BE6
:1011B0001B6801FA00F423431D4C236006E01C4B1E
:1011C0001B6801FA00F4A343194C236010BD10B54D
:1011D00002460020164B34331B6801FA02F4234008
:1011E0000BB1012000E0002010BD01FA00F2104B0D
:1011F00034331A60704730B50246002000230C4C8F
:10120000246801FA02F504EA0503094C3434246821
:1012100001FA02F52C4014B10BB1012000E00020CE
:1012200030BD01FA00F2024B34331A6070470000FF
:101230000074004010B504469848844208D101214A
:10124000084600F086FB0021012000F082FB76E0DA
:101250009348844208D10121022000F07AFB00214A
:10126000022000F076FB6AE08E48844208D101211A
:10127000042000F06EFB0021042000F06AFB5EE019
:101280008948844208D10121082000F062FB002136
:10129000082000F05EFB52E08448844208D101211E
:1012A000102000F056FB0021102000F052FB46E019
:1012B0007F48844208D10121202000F04AFB002110
:1012C000202000F046FB3AE07A48844208D1012110
:1012D000402000F03EFB0021402000F03AFB2EE0D1
:1012E0007548844208D10121802000F032FB0021A2
:1012F000802000F02EFB22E07048844208D10121BA
:10130000801500F026FB0021A01500F022FB16E05E
:101310006B48844208D10121401500F01AFB0021DE
:10132000601500F016FB0AE06648844207D10121EF
:10133000001500F00EFB0021201500F00AFB10BD87
:10134000F0B50A4600210023002400BF3DE001253E
:1013500005FA01F3156805EA03049C4234D10568D7
:101360004F000326BE40B543056015794E00B540D9
:101370000668354305601579012D02D01579022DD7
:1013800016D185684F000326BE40B5438560557968
:101390004E00B540866835438560456801268E401D
:1013A000B5434560456896798E40B6B23543456091
:1013B000C5684F000326BE40B543C560D5794E00D1
:1013C000B540C6683543C560491C1029BFD3F0BD80
:1013D0004FF6FF7101600021017141718171C1718E
:1013E000704708B54FF480320092009A0A43009289
:1013F000009AC261C161009AC261C2690092C26969
:10140000009208BD0246002013690B400BB1012079
:1014100000E0002070470146086980B2704702462C
:10142000002053690B400BB1012000E00020704701
:101430000146486980B27047018370474183704715
:101440000AB1018300E041837047416170474269FE
:101450004A4042617047F0B5002300244D07ED0E6D
:1014600002FA05F3CE1000F1200555F826504E077C
:10147000F70E0F26BE40B543CF1000F1200646F808
:101480002750CE1000F1200555F8265045EA0304F8
:10149000CE1000F1200545F82640F0BD00000240C6
:1014A0000004024000080240000C0240001002400C
:1014B0000014024000180240001C024000200240BC
:1014C0000024024000280240F948006840F0010072
:1014D000F74908600020F64908310860F4480068C0
:1014E000F4490840F2490860F348091D0860F348D0
:1014F000EF4984310860F0481038091D0860EC4855
:10150000006820F48020EA4908600020E8490C3196
:101510000860E7498C31086070470021E44A921C5A
:10152000117011460870704710B501460022002363
:1015300000204A11012A02D1DD4C236808E0022A6A
:1015400003D1DB4C7034236802E0D94C7434236837
:1015500001F01F02012494401C400CB1012000E066
:10156000002010BD38B5002000900024002500BFE9
:101570003120FFF7D9FF05460098401C00900098E5
:10158000B0F5A04F01D0002DF2D03120FFF7CCFFF5
:1015900008B1012400E00024204638BD01460020A7
:1015A000C34A106820F0F80040EAC100106070479C
:1015B000C349086070470021BD4A70321170117034
:1015C000012802D004280AD104E00121B84A70326F
:1015D000117005E00521B64A7032117000E000BFBD
:1015E00000BF7047B7490860704770B5049C41EA76
:1015F00082150126C6EB530645EA0645054345EA32
:101600000465AB4E361D356070BDAD490866704748
:10161000820142EA0172A64B84331A607047A849DE
:101620008866704710B5830143EA016343EA027399
:101630009F4C8834236010BDA14908677047A049BA
:10164000C864704702460020994B0833186820F0A0
:10165000EC6042EA01031843954B08331860704769
:1016600002460020924B0833186820F0784042EA86
:10167000010318438E4B0833186070470146002061
:101680008B4A0832106820F003000843106070474E
:1016900087480830006800F00C00704701460020C1
:1016A000834A0832106820F0F00008431060704749
:1016B000014600207E4A0832106820F4E0500843BA
:1016C0001060704701460020794A0832106820F403
:1016D000604040EAC10010607047F0B50021002270
:1016E0000024022500260223714F08373F6807F0C7
:1016F0000C0121B1042905D0082937D105E0724F2A
:10170000076036E0714F076033E0694F3F1D3F6867
:10171000C7F38056664F3F1D3F6807F03F036EB129
:101720006A4FB7FBF3F7DFF888C10CF1040CDCF863
:1017300000C0CCF3881C07FB0CF40CE0624FB7FB35
:10174000F3F7DFF86CC10CF1040CDCF800C0CCF34B
:10175000881C07FB0CF4564F3F1D3F68C7F3014739
:101760007F1C7D00B4FBF5F7076002E0564F076071
:1017700000BF00BF4E4F08373F6807F0F00109096E
:10178000534F7A5C0768D7404760494F08373F6836
:1017900007F4E051890A4E4F7A5C4768D74087606A
:1017A000434F08373F6807F46041490B484F7A5C64
:1017B0004768D740C760F0BD002100F44072B2F521
:1017C000407F0AD13A4A0832116821F4F811414A9F
:1017D00002401143364A08321160354A70321268AD
:1017E000C0F30B031A43324B70331A60704735490C
:1017F00044390860704733494039086070473649BA
:101800000860704701460020294A8C32106820F099
:101810001F004A1E1043264A8C3210607047014652
:101820000020234A8C32106820F4F8504A1E40EA07
:1018300002201F4A8C3210607047014600201C4A6B
:101840008C32106820F44010084310607047014645
:101850000020174A8C32106820F4400008431060C2
:10186000704701460020124A8C32106820F4403044
:1018700008431060704719490860704739B10C4A35
:101880003032126802430A4B30331A6006E0084ACD
:10189000303212688243064B30331A607047F9B118
:1018A000034A343212680243014B34331A601CE09D
:1018B00000380240FFFFF6EA10300024003000201C
:1018C00000004742800E47420024F40000127A00D4
:1018D000760A0020FFFCFF0F5C014742E0114742FF
:1018E0008F4A126882438E4B1A60704739B18C4A16
:1018F000121D126802438A4B1B1D1A6006E0884ABB
:10190000121D12688243864B1B1D1A60704739B145
:10191000834A0C3212680243814B0C331A6006E092
:101920007F4A0C32126882437D4B0C331A60704739
:1019300039B17B4A103212680243794B10331A6076
:1019400006E0774A103212688243754B10331A60F2
:10195000704739B1724A243A12680243704B243BF3
:101960001A6006E06E4A243A126882436C4B243BAC
:101970001A60704739B16A4A203A12680243684BCC
:10198000203B1A6006E0664A203A12688243644BA4
:10199000203B1A60704739B1614A1C3A1268024311
:1019A0005F4B1C3B1A6006E05D4A1C3A126882439A
:1019B0005B4B1C3B1A60704739B1594A143A1268A4
:1019C0000243574B143B1A6006E0554A143A12681A
:1019D0008243534B143B1A60704739B1504A103A56
:1019E000126802434E4B103B1A6006E04C4A103A14
:1019F000126882434A4B103B1A60704739B1484A1B
:101A00001C3212680243464B1C331A6006E0444AFB
:101A10001C3212688243424B1C331A60704739B142
:101A20003F4A2032126802433D4B20331A6006E0E1
:101A30003B4A203212688243394B20331A60704788
:101A400039B1374A243212680243354B24331A60C5
:101A500006E0334A243212688243314B24331A6041
:101A6000704739B12E4A2C32126802432C4B2C336A
:101A70001A6006E02A4A2C3212688243284B2C3323
:101A80001A60704739B1264A303212680243244B3B
:101A900030331A6006E0224A303212688243204B0B
:101AA00030331A607047012808D11D493C3109685C
:101AB00041F008011A4A3C32116007E018493C31F4
:101AC000096821F00801164A3C321160704739B1AB
:101AD000134A273A12780243114B273B1A7006E04B
:101AE0000F4A273A127882430D4B273B1A707047F2
:101AF0000B484030006840F0807009494031086070
:101B0000704701460020064A283A12680A400AB186
:101B1000012000E000207047014926390870704715
:101B20003438024010B50446FA48844208D10121F5
:101B30001020FFF752FF00211020FFF74EFF57E063
:101B4000F548844209D101214804FFF735FF0021FF
:101B50004FF40030FFF730FF4AE0F048844209D1EB
:101B600001218804FFF728FF00214FF48020FFF7B0
:101B700023FF3DE0EA48844209D10121C804FFF770
:101B80001BFF00214FF40020FFF716FF30E0E5486F
:101B9000844209D101210805FFF70EFF00214FF40F
:101BA0008010FFF709FF23E0DF48844208D10121BC
:101BB0002020FFF712FF00212020FFF70EFF17E083
:101BC000DA48844209D101218807FFF7F5FE002198
:101BD0004FF08040FFF7F0FE0AE0D548844207D17D
:101BE00001214005FFF7E8FE00216005FFF7E4FE54
:101BF00010BD2DE9FF4705460E460024A14600BF53
:101C0000A046B08900B100BF2C8A24F44054F0886B
:101C100004432C82AC8941F20C608443B088318942
:101C20000843718908430443AC81AC8A24F44074AE
:101C3000B0890443AC826846FFF74FFDB548854242
:101C400002D0B948854202D1DDF80C9001E0DDF800
:101C50000890A88900F4004040B109EBC90000EBEE
:101C6000091031684900B0FBF1F707E009EBC90042
:101C700000EB091031688900B0FBF1F76420B7FB75
:101C8000F0F004012009642101FB1078A88900F418
:101C9000004040B1322000EBC800B0FBF1F000F092
:101CA0000700044308E0322000EB08106421B0FB79
:101CB000F1F000F00F0004432C81BDE8FF874FF4E2
:101CC0001651016000218180C18001810C21418178
:101CD00000218181704710B502460020108A20F44F
:101CE00070600B884C8823438C882343CC88234323
:101CF0001843108210BD0021018041808180C18085
:101D0000704721B1828942F40052828104E08289C5
:101D10004DF6FF731A4082817047028B02F47F42B6
:101D20000283028B0A430283704721B1828942F405
:101D30000042828103E08289C2F30E0282817047F1
:101D400021B1828A42F40062828204E0828A4FF2E8
:101D5000FF731A4082827047C1F308028280704785
:101D600001468888C0F308007047028A4FF6F07376
:101D70001A400282028A0A430282704721B1828994
:101D800042F00202828104E082894FF6FD731A401C
:101D90008281704782894FF2FF731A408281828963
:101DA0000A4382817047028A4FF6DF731A4002822B
:101DB000028A0A430282704721B1028A42F48042B9
:101DC000028204E0028A4BF6FF731A4002827047D7
:101DD000818941F001018181704721B1828A42F0FD
:101DE0000802828204E0828A4FF6F7731A408282E8
:101DF0007047028BD2B20283028B42EA0122028335
:101E0000704721B1828A42F02002828204E0828AF5
:101E10004FF6DF731A408282704721B1828A42F006
:101E20001002828204E0828A4FF6EF731A408282A7
:101E30007047828A4FF6FB731A408282828A0A4375
:101E40008282704721B1828A42F00202828204E0DB
:101E5000828A4FF6FD731A40828270471AB1838AD4
:101E60000B43838202E0838A8B4383827047F0B501
:101E70000346002400260025002040F66A17B942D8
:101E800000D100BF1846C1F3421401F01F0601271C
:101E900007FA06F5012C01D10C3004E0022C01D127
:101EA000103000E014301AB107682F43076002E0D9
:101EB0000768AF430760F0BD02460020B1F5007F20
:101EC00000D100BF13880B400BB1012000E00020BF
:101ED000704701F40072B2F5007F00D100BFCA4321
:101EE0000280704770B502460024002300250020C0
:101EF00040F66A16B14200D100BFC1F3421501F0AD
:101F00001F03012606FA03F3012D13D196893340EE
:101F100017E000000010014000440040004800406D
:101F2000004C004000500040001401400078004088
:101F3000007C0040022D02D1168A334001E0968ACF
:101F400033400C12012606FA04F41688344013B10B
:101F50000CB1012000E0002070BD10B5002200236C
:101F600040F66A14A14200D100BF0A120124944035
:101F7000A3B2DC43048010BD7047704770477047C0
:101F80007047754600F02CF8AE460500694653468A
:101F900020F00700854618B020B5FEF78FFDBDE89C
:101FA00020404FF000064FF000074FF000084FF0C0
:101FB000000B21F00701AC46ACE8C009ACE8C00951
:101FC000ACE8C009ACE8C0098D46704710B50446BE
:101FD000AFF300802046BDE81040FEF742B9000094
:101FE00000487047A41500202DE9C04130B4DFF847
:101FF000A0C23CEA111418BF3CEA131400F0EC80B4
:1020000081EA03051CEA111444EAD57418BF1CEADE
:10201000131500F0C780A4EB05044FF0004545EA16
:10202000C12145EAC32341EA505143EA525304F126
:102030007F74994204F500344FEAC0204FEAC2226F
:1020400008BF904200F09C804FEA13650FF24016E3
:10205000765D4FEA134506FB05F7C7F1807706FB6F
:1020600007F74FEAD737A7FB03687642C8F58038F1
:10207000A7FB06CE38BFA8F1010807FB08E64FF022
:10208000000EA6FB028CE6FB03CEDCF1000CCEF1C9
:10209000004E38BFAEF1010EA6FB0C584FF0000702
:1020A0004FF00005E6FB0E87A1FB08C6A0FB07CE9C
:1020B00016EB0E0645F10005E1FB076515F1E04E54
:1020C0007EBFA4F580345FEA46066D4116F18007B5
:1020D00045F100054FEA17274FEA066647EA05670C
:1020E000A6F1DE46B6F1805F4FEA15251FD93846C6
:1020F00024F0010C05EBC471BCF1FE6F01EB0C1177
:1021000002D8F0BCBDE8008124425CBF01F5801E0E
:102110009EEAC47F02D4F0BCBDE80081244238D4DA
:10212000F0BCA1F1C041BDE8004100F0EDB94FEABB
:10213000D22242EA43524FEAD323A7FB02864FEA58
:10214000D02040EA415007FB03661EEA0E0F4FEA1B
:10215000D12105FB026658BFA6EB0056B6EB005630
:102160004FEA520E4EEAC37E18EB0E0E56EB530E9C
:10217000BDD518EB02085E417F1C55F10005B6E79E
:102180004FF480154FF000074FF000064FF00008A5
:10219000ADE7F0BC4FF0000001F1C04101F000419B
:1021A000BDE8008111EA0C1F0CEA131500D00CE009
:1021B00013EA0C1F00F025804FF00000F0BC81EA0C
:1021C000030101F00041BDE80081F0BCBDE8004121
:1021D00081EA030100F098B9F0BCBDE8004170B598
:1021E00000F044F9097EFC3E00F007B881EA0301E3
:1021F0004FF0000001F00041704781EA030100F058
:1022000083B9F0BCBDE800414FF0000021497047A0
:10221000FFFDFBF9F7F5F4F2F0EEEDEBE9E8E6E4AB
:10222000E3E1E0DEDDDBDAD8D7D5D4D3D1D0CFCD32
:10223000CCCBCAC8C7C6C5C4C2C1C0BFBEBDBCBB6B
:10224000BAB9B8B7B6B5B4B3B2B1B0AFAEADACAB66
:10225000AAA9A8A8A7A6A5A4A3A3A2A1A09F9F9E40
:102260009D9C9C9B9A9999989797969595949393F2
:10227000929191908F8F8E8E8D8C8C8B8B8A898989
:10228000888887878685858484838382828181800C
:102290000000FF070000F87F4FEA1153A3F58063A9
:1022A000D3F11E03A8BFD3F1200C08DB4FF000428E
:1022B00042EAC12252EA505232FA03F07047094210
:1022C0000BD4102BC4BF0020704703F5787CBCF101
:1022D000FF3F05D04FF0FF3070474FF000007047D0
:1022E00070B500F0C3F800BF499224800020704709
:1022F000F0E7B0FA80F310FA03F10AD0C3F11D033E
:1023000003F580634FEA41504FEA035202EBD121BB
:1023100070474FF000007047DFF848C170B51CEA05
:10232000111E1EBF1CEA13159EEA0C0F95EA0C0F36
:1023300000F06F8081EA030423EA4C134EEAD47E56
:1023400021EA4C1141F4801143F48013AE44A1FB07
:10235000024CA0FB0365AEF17F7E361955EB0C05F0
:10236000A1FB034C4CF10003A0FB021C16EB0C0676
:10237000654153F10003094218BF46F0010613F40A
:10238000007F0BD14FEA03314FEA0530340341EAB5
:10239000155140EA16506FF003020AE04FEAC321DC
:1023A0004FEAC520F40241EA555140EA56506FF019
:1023B000020202EB2E4201EB025585EACE710AD0F1
:1023C0005FEA440C18BF24F0004450F1000041F1D2
:1023D000000120EAD47040F2FE7C624500D270BD5C
:1023E000A84214BF4FF080444FF04044002E08BF75
:1023F0000024BEF1806FA8BFA1F1C041BDE87040CC
:1024000080F282804FF0000001F1C04101F00041F4
:1024100070479EEA0C0F0CEA131518BF95EA0C0FD3
:1024200006D04FF0000081EA030E0EF0004170BDAF
:1024300000F01CF88900013E00F007B800F009B870
:102440004FEA430C5FEA5C5C08D081EA030100F0CC
:102450005BB84FEA410C5FEA5C5CF6D14FF00000DC
:10246000014970470000FF070000F87F0EF1020EDF
:102470002EF0030E5EF8046B364205D4012A43EBBE
:10248000030515F5001F12D8012841EB010C1CF5BE
:10249000001F0CD80ED14FEAD17C15F5001F0CEBB4
:1024A0004C0C0CF1020C08BF4CEBD37C04E04FF059
:1024B000080C01E04FEAD37C0CEB4C0526FA05F63C
:1024C00006F00706B6F1040C06D20EEB860CBDE84A
:1024D00070404CF0010C6047DFE80CF0090B020281
:1024E0004FF000414FF00000A1F5002170BD1946EA
:1024F0001046012851EB010418BFD4F5001484BF25
:10250000002001F0004170BD0808A0F500114FEA5D
:10251000310170474FF04070E1EE100A7047000043
:102520004025000800000020880A0000C4010008BF
:10253000182E0008880A00208011000028020008D8
:1025400000FF00FF074A37BE5F83377CBBA137C956
:1025500010C0370E57DE37258CFC37BB530D385C67
:10256000521C38A83D2B3869123A3864CD483829B6
:1025700068573891E065382D307438CE2881384A54
:1025800020883852FB8E3824B695389A4E9C38DE17
:10259000BFA2384207A938F11FAF382906B5389EC7
:1025A000B5BA387B29C038FF5DC538B74CCA38E2A8
:1025B000F1CE38BF49D3382B4BD73853F1DA38D85E
:1025C00036DE385B16E138DD8FE3384293E5388B31
:1025D00020E7385932E838EFBDE8384DC3E838B75E
:1025E00037E838CE15E738925DE5384704E3388D93
:1025F00004E0380759DC3856FCD7387AEED238DC9C
:1026000026CD38BAA1C638535BBF386C50B738589E
:102610007EAE38DDE1A43860799A38BA428F38EB63
:102620003D8338AFD26C38118B513822A73438082B
:10263000291638F627EC37D9DCA83782FF44373F14
:10264000EE00FF00483617CACCB6E55B82B7C7413B
:10265000D4B7FC6414B80FE93FB8EC9B6CB82135D3
:102660008DB8C29EA4B8A480BCB84BCCD4B8437B70
:10267000EDB8B33A03B9A9DA0FB9C8921CB9B25D83
:1026800029B9A93036B9A00343B98ACE4FB95889C0
:102690005CB9A02669B9A39B75B9DAF280B903F9D0
:1026A00086B947DC8CB99E9892B9542798B90883AB
:1026B0009DB95EA6A2B9F68BA7B9C22BACB915839A
:1026C000B0B9388BB4B9CB3EB8B91A97BBB91E9024
:1026D000BEB92023C1B9C34AC3B9FF02C5B9764602
:1026E000C6B9C90FC7B99B59C7B93C21C7B94E6113
:1026F000C6B97214C5B95039C3B9E3CBC0B922C841
:10270000BDB9082ABAB994F1B5B9C01AB1B98BA547
:10271000ABB9EF8DA5B9EBD39EB9D87897B9AE78A0
:102720008FB975D786B9FA247BB9995B67B9195007
:1027300052B9370D3CB9F29224B907EC0BB94B36BC
:10274000E4B800FF00B157AEB87B956CB8FA97F0CB
:10275000B784208620563CF837C1D77B38ED79BF47
:1027600038C74C01399E962339E3864639CB0A6A2D
:10277000391E098739DE43993992A9AB392A32BE0D
:10278000393DD0D039B477E339D41DF639445B04F0
:102790003A86990D3AA6C3163A9AD31F3A01C2282F
:1027A0003A2388313A4B1F3A3A1880423A27A34AD3
:1027B0003AC381523A35155A3A1C56613A163D6869
:1027C0003AC1C26E3A13E1743AAA907A3A25CA7FA6
:1027D0003ABD43823AFA61843ABD37863A64CA8781
:1027E0003ADF0F893A2C088A3AF2AF8A3AD5038B3E
:1027F0003A7A008B3AE1A58A3A0AF4893AE5E08808
:102800003A2673873A19A4853ABD73833AB9DF80B3
:102810003A1BD07B3A6F17753A18946D3ABE4465EF
:102820003A0D2A5C3AAD42523AA390473A45153CDC
:102830003A93D02F3A94C6223A4CF9143AC16C0616
:102840003A464700FF00EE399F46CE39F4E0AC39F6
:1028500058228A39112B4C39929201394D5A5238EB
:10286000A045D5B7CF11D8B8E46A3FB952518AB95B
:1028700049C5B5B98DFEE1B9CF7107BA802F1EBA2F
:10288000F32C35BA665D4CBA1AB463BAF6227BBA39
:102890009F4F89BABF0A95BACDBBA0BA6F5FACBAD9
:1028A00094EBB7BA2C56C3BADA9BCEBA8EB2D9BA69
:1028B0009393E4BA7C31EFBA488CF9BA99C901BB59
:1028C0001DA306BBF94B0BBBD3C00FBBA2FC13BBB4
:1028D000B8FD17BB60BD1BBB3F381FBBF96A22BBED
:1028E000875025BB8DE527BBB0262ABB95102CBB96
:1028F000869C2DBB83CA2EBB84952FBB2EFA2FBB83
:1029000026F52FBB10832FBB3FA22EBB594F2DBBEB
:1029100002872BBBDF4529BBF08B26BB2D5423BB85
:10292000969E1FBB7D691BBB35B316BB637811BB7D
:10293000B4BA0BBBCD7605BB5D59FDBAB0B8EEBAE3
:102940003908DFBA00FF00524BCEBAA17EBCBA8074
:10295000A5A9BAF0BF95BAA2D180BA7AB255BA3D4C
:10296000B627BA2F69EFB92E6B8BB975FE8DB825D6
:1029700089103965CFB7393684153A6CEC503A2254
:102980000B873A2176A63A2AB1C63AE1B8E73AEE81
:10299000BF043BB1FF153B6098273B9681393BA7AD
:1029A000B94B3B8A3B5E3B8900713BCD01823B05C5
:1029B0009F8B3B3E56953B46239F3B7104A93B8B27
:1029C000F5B23B3BF3BC3BFCFAC63B490AD13B1B8F
:1029D0001CDB3BED2DE53B633CEF3BFB44F93B55FA
:1029E000A1013C7799063C36890B3CE36E103C67AD
:1029F00048153C7E141A3C7CD11E3C487D233C5D2E
:102A000015283CFE9A2C3CA60B313C2463353C77C0
:102A1000A1393C6EC23D3C3ACA413CABB4453C8D09
:102A20007D493C13294D3C0BB3503C4417543CBDED
:102A300055573CA8725A3CA1655D3CDB32603CF2C4
:102A4000D1623C494B3036653CAE9A673CF1BB697C
:102A50003C42B36B3C3E786D3C49136F3CFE7B704F
:102A60003CC3BA713C01C3723C4DA1733C444D74EC
:102A70003CE7C6743C340E753C5F27750821102175
:102A8000182120212821302138214021482150219E
:102A9000582160216821702178218021882190218E
:102AA0009821A021A821B021B821C021C821D0217E
:102AB000D821E021E821F021F8250025082510255E
:102AC000182520252825302538254025482550253E
:102AD000582560256825702578258025882590252E
:102AE0009825A025A825B025B825C025C825D0251E
:102AF000D825E025E825F025F829002908291029FE
:102B000018292029282930293829402948295029DD
:102B100058296029682970297829802988299029CD
:102B20009829A029A829B029B829C029C829D029BD
:102B3000D829E029E829F029F82D00032D08032DD4
:102B400010032D18032D20032D28032D30032D38BD
:102B5000032D40032D48032D50032D58032D6003F2
:102B60002D68032D70032D78032D80032D88032DF0
:102B700090032D98032DA0032DA8032DB0032DB88D
:102B8000032DC0032DC8032DD0032DD8032DE00342
:102B90002DE8032DF0032DF8032D00042D08042D3E
:102BA00010042D18042D20042D28042D30042D3858
:102BB000042D40042D48042D50042D58042D60048C
:102BC0002D68042D70042D78042D80042D88042D8B
:102BD00090042D98042DA0042DA8042DB0042DB828
:102BE000042DC0042DC8042DD0042DD8042DE004DC
:102BF0002DE8042DF0042DF8042D00052D08052DD9
:102C000010052D18052D20052D28052D30053D38E2
:102C1000051D40052D48052D50052D58052D600535
:102C20002D68052D70052D78052D80052D88052D25
:102C300090052D98052DA0052DA8052DB0052DB8C2
:102C4000052DC0052DC8052DD0052DD8052DE00575
:102C50002DE8052DF0052DF8052D00062D08062D73
:102C600010062D18062D20062D28062D30062D388D
:102C7000062D40062D48062D50062D58062D6006BF
:102C80002D68062D70062D78062D80062D88062DC0
:102C900090062D98062DA0062DA8062DB0062DB85D
:102CA000062DC0062DC8062DD0062DD8062DE0060F
:102CB0002DE8062DF0062DF8062D00072D08072D0E
:102CC00010072D18072D20072D28072D30072D3828
:102CD000072D40072D48072D50072D58072D600759
:102CE0002D68072D70072D78072D80072D88072D5B
:102CF00090072D98072DA0072DA8072DB0072DB8F8
:102D0000072DC0072DC8072DD0072DD8072DE007A8
:102D10002DE8072DF0072DF8072D00082D08082DA8
:102D200010082D18082D20082D28082D30082D38C2
:102D3000082D40082D48082D50082D58082D6008F2
:102D40002D68082D70082D78082D80082D88082DF5
:102D500090082D98082DA0082DA8082DB0082DB892
:102D6000082DC0082DC8082DD0082DD8082DE00842
:102D70002DE8082DF0082DF8082D00092D08092D43
:102D800010092D18092D20092D28092D30092D385D
:102D9000092D40092D48092D50092D58092D60098C
:102DA0002D68092D70092D78092D80092D88092D90
:102DB00090092D98092DA0092DA8092DB0092DB82D
:102DC000092DC0092DC8092DD0092DD8092DE009DC
:102DD0002DE8092DF0092DF8092D000A2D080A2DDE
:102DE000100A2D180A2D200A2D280A2D300A2D38F8
:102DF0000A2D400A2D480A2D500A5006007A030A6F
:102E00000001E00B0102030406070809010001218B
:082E10001A611E03000000001E
:040000050800018965
:00000001FF
